:020000040002F8
:10000000C82D00201D190200370702008D0E0200C6
:1000100000000000000000000000000000000000E0
:10002000000000000000000000000000130C0200AF
:1000300000000000000000006317020067170200C4
:100040001B190200B7190200C3190200151A020099
:10005000171A020000000000191A02001B1A020001
:100060001D1A0200910E02001F1A0200211A02003E
:10007000231A0200251A0200271A0200291A020078
:100080002B1A0200950E02002D1A02002F1A0200F0
:10009000311A0200331A0200C30E0200351A0200A0
:1000A000371A0200391A02000000000000000000A8
:1000B0000000000000000000000000000000000040
:1000C000020010000870100080B2000A4870022080
:1000D0007047F4B582B002000B0002980478E4B2D5
:1000E0002000801C202803DA5078801C202801DBA7
:1000F0000C2039E01D20E4B2051B684605806946E6
:10010000E4B21819801C7DDF0100002901D008002D
:100110002AE01078022809D128006E46368880B27D
:10012000B04203D30926684607880DE008265078B8
:10013000002807D02800577880B2BFB2B84201D358
:10014000577801E0684607883800401CE4B218552B
:10015000641CE4B21E55641C029800783D00AD1C7E
:100160004019029D28700020FEBD70B582B00600C7
:100170000C002078001D202801DB0C201EE06846C2
:1001800079DF0500002D01D0280017E0207801005C
:10019000491C21700321C0B2315420780100491C50
:1001A00021701921C0B23154207831186846008876
:1001B000FFF786FF217808182070002076BDF2B581
:1001C00082B0040015001E006068002801D10720DD
:1001D00027E0307821884018801C202801DB0C2083
:1001E0001FE030780100491C31702188491CC0B2E1
:1001F000295430780100491C31706946097AC0B22F
:100200002954208801906068009030782F18019A56
:100210000099380000F090FA30782188401830704A
:100220000020FEBD10B503001078C01C202801DBA3
:100230000C2014E010780400641C14700224C0B276
:100240000C5410780400641C14700A24C0B20C54BE
:1002500010780400641C1470C0B20B54002010BD50
:10026000FFB583B00C9B00241878694648700025C0
:1002700003980088854248DA01A803994968042256
:100280006A4389180A8802804A88428000226946A7
:1002900001A864DF0600002E01D0300042E068466D
:1002A00000786946097D88422DD1E4B2002C01D046
:1002B000002700E002271878694609784018FFB245
:1002C000C019202801DB0C202CE0E4B2002C0DD159
:1002D0001878401C187018780100491C197069467C
:1002E000097C069AC0B211540120040006981978BE
:1002F0004218694601A864DF002813D119786A46BC
:100300001278891819706D1CB2E7E4B2002C08D07D
:10031000187869464978401A401E06996A4652780C
:100320008854002007B0F0BDF7B507001E00089DF7
:10033000009533000222684601793800FFF790FFEC
:100340000400002C01D020000DE0009533001022A5
:100350006846017A3800FFF783FF0100002901D0C9
:10036000080000E00020FEBD00B501000888062856
:1003700007DB0888124A904205DB0888114A904240
:1003800001D007201BE04888062807DB48880C4A74
:10039000904205DB48880B4A904201D007200EE0CE
:1003A0000888084A904209D04888064A904205D0F9
:1003B00048880A88904201D2072000E0002000BD52
:1003C000810C0000FFFF0000F8B507000E001400CC
:1003D0002078801D202801D30C2026E03800FFF76C
:1003E000C3FF0500002D01D028001EE02078010089
:1003F000491C21700521C0B2315420780100491CEC
:1004000021701221C0B23154207831183888FFF79A
:1004100057FE217808182070207831187888FFF767
:100420004FFE2178081820700020F2BDF2B582B08E
:1004300005001400AE88B61C2078F6B28019801C26
:10044000202801DB0C2032E020780100491C2170BB
:100450003100491C029AC0B2115420780100491C95
:100460002170FF21029AC0B21154029821784118DC
:100470002888FFF725FE217808182070A888002812
:1004800014D0A868002801D1072010E0A8880190A6
:10049000A8680090029821784718019A00993800BE
:1004A00000F04AF92078A988401820700020FEBD8D
:1004B000F3B583B016000398006B002801D1072024
:1004C00046E00025280003993422895CC0B28842A6
:1004D0003DD20398006BEDB20C2169434418A78804
:1004E000BF1C30780100491C31703900491C049A46
:1004F000C0B2115430780100491C31701621049AA1
:10050000C0B211540498317841182088FFF7D8FD03
:10051000317808183070A088002816D0A06800280C
:1005200001D1072014E0A0880290A06801900498EF
:10053000317840180090029A0199009800F0FCF878
:1005400000983078A188401830706D1CBAE7002000
:1005500005B0F0BDF8B505000F001600002400201E
:1005600030702878002809D0320039002800FFF7C1
:10057000B0FD0400002C01D0200081E0A878002804
:1005800008D031003800FFF7F0FD0400002C01D046
:10059000200075E0A88800280AD033003A00012125
:1005A000281DFFF70CFE0400002C01D0200067E09E
:1005B000E86800280BD032003900E8680023C056F4
:1005C000FFF730FE0400002C01D0200058E0288AFC
:1005D00000280CD000963B00062202212800103093
:1005E000FFF7A2FE0400002C01D0200048E0288B79
:1005F00000280CD000963B00072203212800183069
:10060000FFF792FE0400002C01D0200038E0288C77
:1006100000280CD000963B00152214212800203021
:10062000FFF782FE0400002C01D0200028E0A86A19
:10063000002809D032003900A86AFFF7C5FE04007F
:10064000002C01D020001BE0E86A002809D032000D
:100650003900E86AFFF7EAFE0400002C01D0200010
:100660000EE03420285C002809D032003900280030
:10067000FFF71EFF0400002C01D0200000E0200046
:10068000F2BD00B501008888002806D088680028DF
:1006900003D088680078400701D4072000E00020DC
:1006A00000BD00B501008888002801D0072000E0C7
:1006B000002000BDF1B592B00F00002069464870DF
:1006C0000020694608701298002814D01298FFF78D
:1006D000D8FF0500002D01D028002AE000AA521CF6
:1006E00009A91298FFF736FF0400002C01D0200062
:1006F0001FE009AD00E00025002F13D03800FFF700
:10070000D0FF0600002E01D0300012E06A4601A999
:100710003800FFF71FFF0400002C01D0200008E084
:1007200001AA00E000226846037868464178280064
:1007300072DF13B0F0BDFEE7124207D08B0706D080
:100740000B78491C0370401C521EF7D87047830772
:1007500006D00B78491C0370401C521EF9D170471B
:1007600070B4103A03D378C9103A78C0FBD253075B
:1007700001D318C918C001D508C908C0D20704D3CD
:100780000B880380891C801C002A01D50B7803701C
:1007900070BC7047017840780002084380B270470F
:1007A00010B504002000FFF7F5FF01000800C007A6
:1007B000C00F10BDF2B584B004006846007C152857
:1007C00001DB002026E0D94800888649884220D0F5
:1007D0008548007800281CD0102500266F4632007E
:1007E0002900380000F0B2F9804800886946088086
:1007F000039404A802900120694688706946CB489A
:100800000088A6DF002801D1012000E00020C0B24E
:1008100000E0002005B0F0BD38B57248C34908803B
:1008200000207149087000F054F8040000F069F8E5
:100830000500254300F0DCF82843002801D1012001
:1008400000E00020C0B232BD8188B84A1180B849AA
:10085000096801220A43B6490A6070476148B349F2
:100860000880B348006801218843B1490860704797
:1008700038B50400A51D28885C49898888421CD1A8
:10088000288B022819D128001A30FFF789FF002889
:1008900009D0012054490870A5480068022101438D
:1008A000A348016014E000204F490870A048006888
:1008B000022188439E4908600AE028889D490988EA
:1008C000884205D1298BC9B228001A3000F0A0F95E
:1008D00031BD00B585B001A897491022FFF740FF50
:1008E000964901A862DF0300944800786946887041
:1008F000934869460880934A69460120A0DF05B005
:1009000000BDF0B591B01C200490002003900AAC0B
:10091000039A0499200000F019F90AA80078082128
:1009200001430AA801700AA80078042101430AA81B
:1009300001708248007801A9887002206946888089
:100940000320029000246D4622000299280000F046
:10095000FDF868460078F02101400120084369460F
:100960000870684600780007000F102101436846B0
:10097000017068464078F021014001200843694633
:100980004870684640780007000F10210143684610
:10099000417068468078F921014002200843694689
:1009A000887068468078012101436846817014256B
:1009B000002605AF32002900380000F0C7F801A872
:1009C000059068460690142005A90881142005A901
:1009D0008881584B05AA0AA95A480088A2DF11B09D
:1009E000F0BD0000FFFF0000C52500209425002079
:1009F000F0B595B0032007900020069001AC069A50
:100A00000799200000F0A2F868460079F021014023
:100A10000120084369460871684600790007000F05
:100A2000102101436846017101A84078F02101407E
:100A30000120084301A9487001A840780007000F71
:100A40001021014301A8417001A88078F9210140DB
:100A50000220084301A988701C2005900020049002
:100A60000DAC049A0599200000F070F80DA80078EC
:100A7000102101430DA8017001A812902F480078A1
:100A800002A9887001206946088103200390002490
:100A90006D4622000399280000F058F86846007857
:100AA000F02101400120084369460870684600783B
:100AB0000007000F10210143684601706846407826
:100AC000F02101400120084369464870684640789B
:100AD0000007000F10210143684641706846807886
:100AE000F9210140022008436946887068468078F1
:100AF00001210143684681701425002608AF3200A9
:100B00002900380000F022F802A8089068460990F1
:100B1000142008A90881142008A988810A4B08AA72
:100B20000DA908480088A2DF15B0F0BDC22500203D
:100B3000B42500209C250020D8190200C4250020DF
:100B4000EEEE0000C0250020942500201206130AB6
:100B50001A43130C1A4300BF094205D0830705D07E
:100B60000270401C491EF9D170470000130030B4D8
:100B700014001500103902D310393CC0FCD24907CB
:100B800000D30CC000D504C0890002D30280801CB1
:100B9000002900D5027030BC7047000038B5002431
:100BA00000251948006880210906014316480160A4
:100BB00072B600F08EF800F02EF862B600F026F95A
:100BC000002800D1FEE700F025F800F0B1F800F0B1
:100BD00043F900F0D0F900F0D1FA00F0D9FA00F0B2
:100BE000FBFA00F02DFC0848006840004008064968
:100BF000086000F018F900F0FEF90448006880472A
:100C000000F002F9F5E70000B8250020AC2500202F
:100C10007047FEE7704703204F49086003204F49A3
:100C2000086003204E4908600C204E4908600020EF
:100C30004D4908600C204D49086003204C4908606C
:100C400003204C49086003204B49086003204B49AE
:100C5000086003204A49086003204A4908600320CD
:100C6000494908600720494908600320484908604D
:100C7000032048490860032047490860032047498A
:100C800008600320464908600320464908600320A5
:100C90004549086000204549086000204449086033
:100CA0000320444908600320434908600320434966
:100CB000086003204249086003204249086003207D
:100CC0004149086003204149086003204049086009
:100CD000704700B53F4800213F4A11600121802242
:100CE000D20511603C490968002902D1401E002844
:100CF000F8D1002808D10121384A11603849096823
:100D000001220A4336490A600021334A1160022158
:100D1000344A11600021344A11600121334A1160C4
:100D2000314909680029FBD000212F4A116000BD1C
:100D300001202F49086005202E49086001202E4916
:100D4000086001202D49086001202D49086001201C
:100D50002C49086070470000780700507407005065
:100D6000700700506C07005068070050640700507F
:100D7000600700505C0700505807005054070050AF
:100D8000500700504C0700504807005044070050DF
:100D9000400700503C07005038070050340700500F
:100DA000300700502C07005028070050240700503F
:100DB000200700501C07005018070050140700506F
:100DC000100700500C07005008070050040700509F
:100DD0000007005040420F000001004004000040A6
:100DE000B82500201805004004010040080000401C
:100DF0000410014008150140441301400413014050
:100E000008100140001001403DDF704780B500220E
:100E10000D49002010DF1043002801D1012000E01F
:100E20000020C0B202BD80B508480068C00309D5E3
:100E300006480068064901400448016000F0A7F92F
:100E400000F0A8F901BD0000550E0200B8250020F1
:100E5000FFFFFEFF00B5FEE710B5002203211620BC
:100E600028DF03001343162023DF04001C43032163
:100E7000112028DF01002143112023DF084300282F
:100E800001D1012000E00020C0B210BD00B5FEE796
:100E900000B5FEE700B500200E4908600E48006866
:100EA000401C0D4908600C480068FA21890000F0D8
:100EB00001FC002904D109480068401C074908606A
:100EC00000BD0748006880214902014304480160D1
:100ED0007047000000110140A4250020A825002033
:100EE000B825002000B59B49C0B2082242438918AA
:100EF000C979012907D19849C0B2042242438958CF
:100F0000964A116006E09449C0B2042242438958CF
:100F1000934A116000218F4AC0B208234343D15441
:100F200000BD00B58B49C0B2082242438918C97977
:100F3000012907D18849C0B2042242438958884A0E
:100F4000116006E08449C0B2042242438958834AB2
:100F5000116000217F4AC0B208234343D15400BD31
:100F6000804909687C4AC0B204234343D2584A40AE
:100F70007D490A6070471FB502A87C490CC90CC0A6
:100F80000839083868467A490CC90CC0083908384D
:100F90000420FFF7C6FF0D20FFF7A4FF0024E4B2F2
:100FA000082C21DA0420FFF7DBFF0D20FFF7D8FF24
:100FB00002A8E4B2005DFFF795FF6846E4B2005D69
:100FC000FFF790FF00206B49884201D2401CFAE7EE
:100FD00002A8E4B2005DFFF7A4FF6846E4B2005D3A
:100FE000FFF79FFF641CDAE700206349884201D2C3
:100FF000401CFAE71FBD10B50024E4B2152C00DB3D
:10100000A6E05448E4B208216143405C012871D154
:101010005048E4B20821614340180221405E002894
:1010200004D12000C0B2FFF77CFF5CE04948E4B285
:101030000821614340180221405E142804D1200099
:10104000C0B2FFF74FFF4EE04248E4B208216143CF
:1010500040188088401E3F49E4B208226243891844
:1010600088803C48E4B20821614340188088002809
:1010700039D13848E4B20821614340188079012809
:101080001AD12000C0B2FFF74CFF14203149E4B25E
:101090000822624389180222895E401A2D49E4B26F
:1010A000082262438918888000202A49E4B2082275
:1010B00062438918887116E02000C0B2FFF712FF62
:1010C0002448E4B208216143401840882149E4B231
:1010D000082262438918888001201E49E4B2082250
:1010E00062438918887101201A49E4B208226243D8
:1010F00088542BE01748E4B208216143405C022881
:1011000024D11448E4B20821614340188088401E6D
:101110001049E4B208226243891888800D48E4B27D
:10112000082161434018808800280FD12000C0B2F8
:10113000FFF716FF0748E4B20821614340184088D2
:101140000449E4B20822624389188880641C54E789
:1011500010BD000064240020102400200805005069
:101160000C0500501005005004050050041A020040
:101170000C1A0200400D030080841E0080B5C0DF01
:10118000002801D1012000E00020C0B202BD70475C
:101190000120704710B500F00BF80400002C06D0B9
:1011A000200000F043F800F003F80400F6E710BD5B
:1011B00080B56420694608806946064860DF010002
:1011C000052901D1002004E0002901D0002000E021
:1011D000004802BD1425002010B50024E4B200F040
:1011E0005FF82043002801D0012400E00024E4B28D
:1011F00000F094F82043002801D0012400E00024EE
:10120000E4B200F0D8F82043002801D0012400E027
:10121000002400F0E3F8E4B200F0D6F82043002800
:1012200001D0012000E00020C0B210BD38B505009B
:101230000024288810280AD011280FD0132815D090
:1012400019281AD0502820D0522817D021E0A88879
:10125000754908802800FFF7F7FA1AE073487249C9
:101260000880FFF7FBFA00F0AFF812E0704A0021A7
:101270006D4800887FDF04000BE00AE000220021B7
:1012800069480088A9DF040003E02800FFF7F0FAAE
:10129000FFE7002C01D1012000E00020C0B232BDE8
:1012A000F0B585B0002001900120694608706846BD
:1012B00000780007000F1021014368460170019B70
:1012C00005225C4968467CDF184301900199F120B2
:1012D000800078DF04000C430825002602AF3200AE
:1012E00029003800FFF732FCC82040006946088119
:1012F000C820800002A94880002002A98880C82058
:10130000400002A9C88002A87ADF2043002801D14A
:10131000012000E00020C0B205B0F0BDF0B595B0EE
:101320000020019006206946087004A842490CC9B3
:101330000CC008390838382003900020029006AC11
:10134000029A03992000FFF701FC02206946087603
:10135000012006A98870012006A9888068460890A7
:10136000022006A9088304A80D90019C002106A86C
:10137000FFF7A0F920430400142500262F4F320068
:1013800029003800FFF7E2FB00202C4908700020FC
:101390002A494860002029490872282027490882E4
:1013A000002026494882002C01D1012000E00020C5
:1013B000C0B215B0F0BD80B5FFF72EFA002801D1FC
:1013C000002000E0012002BD80B51C4873DF00282A
:1013D00001D1012000E00020C0B202BD1E2014494E
:1013E000088013488078012101431148817010481A
:1013F0008078FD2101400E4881700D488078E321FE
:1014000001400C2008430A49887009488078DF2190
:1014100001400748817007200549C8701020044921
:10142000087170470000000010250020FFFF000039
:101430008C250020F4190200FC19020078250020F8
:1014400070B50325FF24904E220029003000FFF7DD
:101450007DFB00208D4908808C4800888C490880DD
:101460008C488D4908601320FFF73CFD1220FFF7E0
:1014700058FD1420FFF755FD70BD00B50021082967
:101480002FDA83480088854A02234B43D25A104200
:101490000ED0824802224A43805A7D4A10807C48FE
:1014A000008880229200024379480280012019E0DE
:1014B00076480088794A02234B43D25A10420ED014
:1014C000764802224A43805A704A10806F4800884A
:1014D0008022920002436D480280012002E0491CF4
:1014E000CDE7002000BD80B56D48006801280BD114
:1014F0001420FFF7F7FC1220FFF7F4FC1320FFF78E
:1015000010FD68486449086001BDF8B5644800688A
:10151000800736D55C480078CC2834D15A484678C4
:101520005A48008801213200521E914008422AD1B7
:1015300030000930C0B2FFF7D5FC01203100491E50
:10154000884052490880AC206946087003216846EB
:10155000FFF730F9FFF791FF002803D052484E49BA
:10156000086010E00325FF24474F220029003800BF
:10157000FFF7ECFA4D48484908601220FFF7D1FC0C
:1015800001E0FFF75DFFF1BD70B5454800688007D9
:101590001AD53D480078AC2818D00325FF243A4ED0
:1015A000220029003000FFF7D1FAFFF766FF00287C
:1015B00003D03D483849086008E03A483649086099
:1015C0001220FFF78FFC01E0FFF73AFF70BD10B566
:1015D00082B037480068FA21490000F06BF8002912
:1015E00051D01420FFF7BCFC1220FFF7B9FC1320E8
:1015F000FFF7B6FC26480088800522D5002400208D
:10160000092811DA22490978C90705D50100491CC2
:101610006A46E4B21155641C1D49098889B249081B
:101620001B4A1180401CEBE768460078FFF798FCE6
:1016300068464078FFF794FC68468078FFF790FC96
:1016400021E000240020092811DA10490978C9078F
:1016500005D50100491C6A46E4B21155641C0B49CA
:10166000098889B24908094A1180401CEBE768469D
:101670000078FFF775FC68464078FFF771FC684614
:101680008078FFF76DFC13BDB0250020BE2500203B
:10169000BC250020E7140200AC2500200024002017
:1016A000B42500200B150200CF1502008915020099
:1016B000A42500200022030A8B420BD203098B428F
:1016C00019D243088B422ED2411A00D20146524110
:1016D00010467047FF2209023FD012068B4205D305
:1016E000121209028B4201D31212090203098B4222
:1016F00019D300E0090AC3098B4201D3CB01C01AF8
:10170000524183098B4201D38B01C01A52414309D4
:101710008B4201D34B01C01A524103098B4201D3C2
:101720000B01C01A5241C3088B4201D3CB00C01A2F
:10173000524183088B4201D38B00C01A52414308A7
:101740008B4201D34B00C01A5241884200D3401A49
:101750005241CFD201461046704708B500F002F85A
:1017600008BDFEE77047FEE780B500F011F80028DD
:1017700006D03148314908608020000230490860B5
:1017800000F03EF8002802D001202E49086001BD7B
:1017900000B52D480078C0B201282FD12B48007821
:1017A0000007000F002829D129480078F0210140C6
:1017B000002907D127480078F0210140002901D1F4
:1017C00001201CE022480078F0210140102907D1B7
:1017D00020480078F0210140002901D101200EE0CD
:1017E0001B480078F0210140302907D119480078C2
:1017F000F0210140002901D1012000E0002000BDBE
:1018000000B511480078C0B2012813D10F48007804
:101810000007000F00280DD10D480078F02101408D
:10182000402907D10B480078F0210140002901D15F
:10183000012000E0002000BDDFFF07C004050040DC
:10184000186C004008060040E00F00F0E40F00F0C4
:10185000E80F00F0EC0F00F0F8B402001068111867
:10186000536858080C189068DB0701D54B46C01820
:1018700000941FE010000C30F2BC70470F78491C38
:101880000770401C761EF9D1002B13D00E78491C2E
:10189000A4082540032D01D10D78491C2C023419D0
:1018A000654244199B1C05D02578641C0570401CBA
:1018B0005B1EF9D1009B9942DCD00C78491C0325B2
:1018C0000326264002D10E78F61C491C23090F2B53
:1018D000D8D10B780F33491CD4E770B40100012331
:1018E000002413E00A68091D1A4202D04D466D1EFD
:1018F00052191460121D001F0428FAD21500860721
:1019000001D51480AD1C184000D02C700868091D4A
:101910000028E7D1080070BC7047FEE703210648A5
:1019200002680A430260054802680A4302600448EC
:10193000804704480047000024050040540500404B
:1019400069170200E919020010B5074979441831F6
:10195000064C7C44163404E0081D0A688918884740
:101960000100A142F8D110BD0800000024000000D1
:101970006BFFFFFFB40000001425002000000000F2
:10198000D9FEFFFFB6000000AE00000000240020DA
:1019900000F00BF8002801D0FFF7D6FF002000BFB1
:1019A00000BFFFF7FBF800F002F80120704780B598
:1019B00000F002F801BDFEE70746384600F002F8E5
:1019C000FBE7FEE780B500BF00BF024A1100182008
:1019D000ABBEFBE7260002009ECADC240EE5A9E0B0
:1019E00093F3A3B50000406E00BF00BF00BF00BF6F
:1019F000FFF7CEFF424C4554540000000D18010083
:101A00000A1801000001020508070603090C0F105F
:101A1000110E0B0AFEE7FEE7FEE7FEE7FEE7FEE734
:101A2000FEE7FEE7FEE7FEE7FEE7FEE7FEE7FEE78E
:101A3000FEE7FEE7FEE7FEE7FEE7101107003800CD
:101A4000C00149009200240111015400000010045B
:101A50001302000122400B3340000150012000041A
:101A60001631121208041111212D300220000080BD
:101A70001832201731165002000001204A212A1086
:101A80000100001402F390010108000324F400FF98
:011A9000FF56
:04000005000219E9F3
:00000001FF
